{
  "_format": "hh-sol-artifact-1",
  "contractName": "BuyMeACoffee",
  "sourceName": "contracts/BuyMeACoffe.sol",
  "abi": [
    {
      "inputs": [],
      "stateMutability": "nonpayable",
      "type": "constructor"
    },
    {
      "anonymous": false,
      "inputs": [
        {
          "indexed": true,
          "internalType": "address",
          "name": "from",
          "type": "address"
        },
        {
          "indexed": false,
          "internalType": "uint256",
          "name": "timestamp",
          "type": "uint256"
        },
        {
          "indexed": false,
          "internalType": "string",
          "name": "name",
          "type": "string"
        },
        {
          "indexed": false,
          "internalType": "string",
          "name": "message",
          "type": "string"
        }
      ],
      "name": "NewMemo",
      "type": "event"
    },
    {
      "inputs": [
        {
          "internalType": "string",
          "name": "_name",
          "type": "string"
        },
        {
          "internalType": "string",
          "name": "_message",
          "type": "string"
        }
      ],
      "name": "buyCoffee",
      "outputs": [],
      "stateMutability": "payable",
      "type": "function"
    },
    {
      "inputs": [],
      "name": "getMemos",
      "outputs": [
        {
          "components": [
            {
              "internalType": "address",
              "name": "from",
              "type": "address"
            },
            {
              "internalType": "uint256",
              "name": "timestamp",
              "type": "uint256"
            },
            {
              "internalType": "string",
              "name": "name",
              "type": "string"
            },
            {
              "internalType": "string",
              "name": "message",
              "type": "string"
            }
          ],
          "internalType": "struct BuyMeACoffee.Memo[]",
          "name": "",
          "type": "tuple[]"
        }
      ],
      "stateMutability": "view",
      "type": "function"
    },
    {
      "inputs": [],
      "name": "withdrawTips",
      "outputs": [],
      "stateMutability": "nonpayable",
      "type": "function"
    }
  ],
  "bytecode": "0x608060405234801561001057600080fd5b50336000806101000a81548173ffffffffffffffffffffffffffffffffffffffff021916908373ffffffffffffffffffffffffffffffffffffffff160217905550610a4e806100606000396000f3fe6080604052600436106100345760003560e01c8063204206e1146100395780633aaa74b214610055578063865c51721461006c575b600080fd5b610053600480360381019061004e919061056d565b610097565b005b34801561006157600080fd5b5061006a61021f565b005b34801561007857600080fd5b5061008161027f565b60405161008e91906107ab565b60405180910390f35b600034116100da576040517f08c379a00000000000000000000000000000000000000000000000000000000081526004016100d1906107cd565b60405180910390fd5b600160405180608001604052803373ffffffffffffffffffffffffffffffffffffffff16815260200142815260200184815260200183815250908060018154018082558091505060019003906000526020600020906004020160009091909190915060008201518160000160006101000a81548173ffffffffffffffffffffffffffffffffffffffff021916908373ffffffffffffffffffffffffffffffffffffffff1602179055506020820151816001015560408201518160020190805190602001906101a9929190610462565b5060608201518160030190805190602001906101c6929190610462565b5050503373ffffffffffffffffffffffffffffffffffffffff167fc56140e05f516509ae28110e0f72e17558a7561630dad2647c3ae87d986e365c428484604051610213939291906107ed565b60405180910390a25050565b60008054906101000a900473ffffffffffffffffffffffffffffffffffffffff1673ffffffffffffffffffffffffffffffffffffffff166108fc479081150290604051600060405180830381858888f1935050505061027d57600080fd5b565b60606001805480602002602001604051908101604052809291908181526020016000905b8282101561045957838290600052602060002090600402016040518060800160405290816000820160009054906101000a900473ffffffffffffffffffffffffffffffffffffffff1673ffffffffffffffffffffffffffffffffffffffff1673ffffffffffffffffffffffffffffffffffffffff1681526020016001820154815260200160028201805461033690610977565b80601f016020809104026020016040519081016040528092919081815260200182805461036290610977565b80156103af5780601f10610384576101008083540402835291602001916103af565b820191906000526020600020905b81548152906001019060200180831161039257829003601f168201915b505050505081526020016003820180546103c890610977565b80601f01602080910402602001604051908101604052809291908181526020018280546103f490610977565b80156104415780601f1061041657610100808354040283529160200191610441565b820191906000526020600020905b81548152906001019060200180831161042457829003601f168201915b505050505081525050815260200190600101906102a3565b50505050905090565b82805461046e90610977565b90600052602060002090601f01602090048101928261049057600085556104d7565b82601f106104a957805160ff19168380011785556104d7565b828001600101855582156104d7579182015b828111156104d65782518255916020019190600101906104bb565b5b5090506104e491906104e8565b5090565b5b808211156105015760008160009055506001016104e9565b5090565b600061051861051384610863565b610832565b90508281526020810184848401111561053057600080fd5b61053b848285610935565b509392505050565b600082601f83011261055457600080fd5b8135610564848260208601610505565b91505092915050565b6000806040838503121561058057600080fd5b600083013567ffffffffffffffff81111561059a57600080fd5b6105a685828601610543565b925050602083013567ffffffffffffffff8111156105c357600080fd5b6105cf85828601610543565b9150509250929050565b60006105e58383610723565b905092915050565b6105f6816108f9565b82525050565b6000610607826108a3565b61061181856108c6565b93508360208202850161062385610893565b8060005b8581101561065f578484038952815161064085826105d9565b945061064b836108b9565b925060208a01995050600181019050610627565b50829750879550505050505092915050565b600061067c826108ae565b61068681856108d7565b9350610696818560208601610944565b61069f81610a07565b840191505092915050565b60006106b5826108ae565b6106bf81856108e8565b93506106cf818560208601610944565b6106d881610a07565b840191505092915050565b60006106f0601b836108e8565b91507f2063616e742062757920636f6666656520666f722066726565202000000000006000830152602082019050919050565b600060808301600083015161073b60008601826105ed565b50602083015161074e602086018261078d565b50604083015184820360408601526107668282610671565b915050606083015184820360608601526107808282610671565b9150508091505092915050565b6107968161092b565b82525050565b6107a58161092b565b82525050565b600060208201905081810360008301526107c581846105fc565b905092915050565b600060208201905081810360008301526107e6816106e3565b9050919050565b6000606082019050610802600083018661079c565b818103602083015261081481856106aa565b9050818103604083015261082881846106aa565b9050949350505050565b6000604051905081810181811067ffffffffffffffff82111715610859576108586109d8565b5b8060405250919050565b600067ffffffffffffffff82111561087e5761087d6109d8565b5b601f19601f8301169050602081019050919050565b6000819050602082019050919050565b600081519050919050565b600081519050919050565b6000602082019050919050565b600082825260208201905092915050565b600082825260208201905092915050565b600082825260208201905092915050565b60006109048261090b565b9050919050565b600073ffffffffffffffffffffffffffffffffffffffff82169050919050565b6000819050919050565b82818337600083830152505050565b60005b83811015610962578082015181840152602081019050610947565b83811115610971576000848401525b50505050565b6000600282049050600182168061098f57607f821691505b602082108114156109a3576109a26109a9565b5b50919050565b7f4e487b7100000000000000000000000000000000000000000000000000000000600052602260045260246000fd5b7f4e487b7100000000000000000000000000000000000000000000000000000000600052604160045260246000fd5b6000601f19601f830116905091905056fea2646970667358221220140e55c412a2953e40f8d1218010c8f8b586710aff5cf4521b649ddc6d6952a064736f6c63430008000033",
  "linkReferences": {},
  "deployedLinkReferences": {}
}